:020000040800F2
:1000000000000220FD040008F5070008FB070008B7
:1000100001080008070800080D080008000000009B
:1000200000000000000000000000000013080008AD
:1000300021080008000000002F0800083D08000803
:100040004D0500084D0500084D0500084D05000848
:100050004D0500084D0500084D0500084D05000838
:100060004D0500084D0500084D0500084D05000828
:100070004D0500084D0500084D0500084D05000818
:100080004D0500084D0500084D0500084D05000808
:100090004D0500084D0500084D0500084D050008F8
:1000A0004D0500084D0500084D0500084D050008E8
:1000B0004D0500084D0500084D0500084D050008D8
:1000C0004D0500084D0500084D0500084D050008C8
:1000D0004D0500084D0500084D0500084D050008B8
:1000E000490800084D0500084D0500084D050008A9
:1000F0004D0500084D0500084D0500084D05000898
:100100004D0500084D0500084D0500084D05000887
:100110004D0500084D0500084D0500084D05000877
:100120004D0500084D0500084D0500084D05000867
:100130004D05000800000000000000004D0500080B
:100140004D0500084D0500084D0500084D05000847
:100150004D0500084D0500084D0500084D05000837
:100160004D0500084D0500084D0500084D05000827
:100170004D0500084D0500084D0500080000000071
:10018000000000004D050008000000000000000015
:100190004D05000800000000000000004D050008AB
:1001A0000000000000000000000000004D050008F5
:1001B0004D0500084D0500084D0500084D050008D7
:0401C0004D050008E1
:1001C40010B5054C237833B9044B13B10448AFF38D
:1001D40000800123237010BD0C00002000000000EB
:1001E400501A000808B5034B1BB103490348AFF389
:1001F400008008BD0000000010000020501A000814
:1002040053B94AB9002908BF00281CBF4FF0FF3179
:100214004FF0FF3000F06EB9ADF1080C6DE904CE7B
:1002240000F006F8DDF804E0DDE9022304B07047CD
:100234002DE9F047089D04468C46002B40F083804E
:100244008A42174647D9B2FA82F242B1C2F120007B
:1002540024FA00F09140974040EA010C94404FEAA0
:100264001748230CBCFBF8F61FFA87FE08FB16C1DF
:1002740043EA014306FB0EF1994209D9FB1806F142
:10028400FF3080F01981994240F21681023E3B44CE
:100294005B1AA4B2B3FBF8F008FB103344EA03443E
:1002A40000FB0EFEA64509D93C1900F1FF3380F08E
:1002B4000581A64540F2028102383C4440EA0640EA
:1002C400A4EB0E0400261DB1D4400023C5E900436D
:1002D4003146BDE8F08702B9FFDEB2FA82F2002AA5
:1002E40050D1CB1B4FEA174E1FFA87F80126B3FBF8
:1002F400FEFC210C0EFB1C3341EA034108FB0CF30A
:100304008B4207D979180CF1FF3002D28B4200F2EC
:10031400E9808446C91AA3B2B1FBFEF00EFB1011AA
:1003240043EA014408FB00F8A04507D93C1900F151
:10033400FF3302D2A04500F2D9801846A4EB08048A
:1003440040EA0C40BFE78B4209D9002D00F0B18090
:100354000026C5E9000130463146BDE8F087B3FA0E
:1003640083F6002E4AD18B4202D3824200F2B88037
:10037400841A61EB030101208C46002DA8D0C5E945
:10038400004CA5E7C2F1200320FA03F6974001FAD6
:1003940002F04FEA174ED9403043030CB1FBFEF68E
:1003A4001FFA87F80EFB161143EA014306FB08F116
:1003B400994204FA02F409D9FB1806F1FF3C80F0D3
:1003C4008D80994240F28A80023E3B445B1A81B29E
:1003D400B3FBFEF00EFB103341EA034100FB08F3CC
:1003E4008B4207D9791800F1FF3C73D28B4271D943
:1003F40002383944CB1A40EA064678E7C6F1200CA5
:1004040003FA06F422FA0CF31C4320FA0CF701FA5F
:1004140006F34FEA144E21FA0CF11F433B0CB1FBD7
:10042400FEF91FFA84F80EFB191143EA014109FB96
:1004340008FA8A4502FA06F200FA06F308D96118A6
:1004440009F1FF3048D28A4546D9A9F1020921446D
:10045400A1EB0A01BFB2B1FBFEF00EFB101147EA9B
:10046400014700FB08F8B84507D9E71900F1FF3147
:100474002ED2B8452CD90238274440EA0940A7EBCC
:100484000807A0FB02894F45C64649461AD317D030
:100494005DB1B3EB0E0267EB010707FA0CFCF24007
:1004A4004CEA0202F740C5E9002700263146BDE8C0
:1004B400F0872E4628460BE70646E9E61846FDE691
:1004C4004345E5D2B8EB020E69EB04010138DFE7DE
:1004D4000846D2E760468DE78146B9E7664675E788
:1004E40030464AE7ACF1020C394413E702383C4485
:1004F40024E700BF704700BFDFF834D00D480E4931
:100504000E4A002302E0D458C4500433C4188C4269
:10051400F9D30B4A0B4C002301E013600432A242CE
:10052400FBD300F097F901F065FA00F049F8704741
:1005340000000220000000200C000020881A00089F
:100544000C00002034000020FEE7000080B483B0DB
:1005540000AF0346FB80184B1B680133164A136037
:10056400154B1B68012B04D1144B4FF47A721A609B
:100574001BE0114B1B68022B04D1104B40F2EE22FE
:100584001A6012E00C4B1B68032B04D10B4B4FF485
:10059400FA721A6009E0084B1B68042B05D1074B5B
:1005A400FA221A60044B00221A6000BF0C37BD46C1
:1005B4005DF8047B704700BF2C0000202800002059
:1005C40080B500AF00F058F900F010F800F07AF8A8
:1005D4002021044800F0A5FC034B1B68184600F0DA
:1005E400BDF9F5E7000002402800002080B594B072
:1005F40000AF07F11C0334220021184601F01EFA53
:1006040007F1080300221A605A609A60DA601A61DE
:1006140000237B60294B1B6C284A43F080531364EE
:10062400264B1B6C03F080537B607B6800233B608C
:10063400234B1B68224A43F440431360204B1B683E
:1006440003F440433B603B680123FB614FF4803378
:100654003B6202237B634FF48003BB630423FB638D
:10066400A8233B6402237B640223BB640223FB6450
:1006740007F11C03184600F01FFF0346002B01D0AE
:1006840000F088F80F23BB600223FB6000233B616A
:100694004FF4A0537B614FF48053BB6107F108030F
:1006A4000521184600F070FC0346002B01D000F031
:1006B40071F800BF5037BD4680BD00BF003802400E
:1006C4000070004080B588B000AF07F10C03002231
:1006D4001A605A609A60DA601A610023BB602A4B80
:1006E4001B6B294A43F004031363274B1B6B03F072
:1006F4000403BB60BB6800237B60234B1B6B224A53
:1007040043F080031363204B1B6B03F080037B6077
:100714007B6800233B601C4B1B6B1B4A43F00103AB
:100724001363194B1B6B03F001033B603B6800220E
:100734002021164800F0DCFB4FF40053FB604FF41B
:1007440088133B6100237B6107F10C0319461048B1
:1007540000F03AFA2023FB6001233B6100237B6114
:100764000323BB6107F10C031946084800F02CFA77
:1007740000220021282000F0F0F9282000F009FAD6
:1007840000BF2037BD4680BD003802400000024053
:100794000008024080B400AF72B600BFFEE700005C
:1007A40080B483B000AF00237B60104B5B6C0F4AB6
:1007B40043F4804353640D4B5B6C03F480437B60D0
:1007C4007B6800233B60094B1B6C084A43F0805351
:1007D4001364064B1B6C03F080533B603B6800BF03
:1007E4000C37BD465DF8047B704700BF00380240FB
:1007F40080B400AFFEE780B400AFFEE780B400AF82
:10080400FEE780B400AFFEE780B400AFFEE780B43B
:1008140000AF00BFBD465DF8047B704780B400AFF5
:1008240000BFBD465DF8047B704780B400AF00BFD5
:10083400BD465DF8047B704780B500AF00F06EF8EC
:1008440000BF80BD80B500AF4FF4005000F084FBC2
:1008540000BF80BD80B400AF064BD3F88830054A92
:1008640043F47003C2F8883000BFBD465DF8047BD2
:10087400704700BF00ED00E080B500AF0E4B1B6871
:100884000D4A43F4007313600B4B1B680A4A43F48C
:1008940080631360084B1B68074A43F4807313603A
:1008A400032000F04FF90F2000F008F8FFF778FF5D
:1008B4000023184680BD00BF003C024080B582B0D2
:1008C40000AF7860124B1A68124B1B7819464FF42C
:1008D4007A73B3FBF1F3B2FBF3F3184600F067F954
:1008E4000346002B01D001230EE07B680F2B0AD8AE
:1008F400002279684FF0FF3000F02FF9064A7B6838
:100904001360002300E0012318460837BD4680BD6C
:1009140000000020080000200400002080B400AF84
:10092400064B1B781A46064B1B681344044A136093
:1009340000BFBD465DF8047B704700BF080000207F
:100944003000002080B400AF034B1B681846BD463E
:100954005DF8047B704700BF3000002080B584B090
:1009640000AF7860FFF7EEFFB8607B68FB60FB6860
:10097400B3F1FF3F05D00A4B1B781A46FB681344BA
:10098400FB6000BFFFF7DEFF0246BB68D31AFA68BC
:100994009A42F7D800BF00BF1037BD4680BD00BFE4
:1009A4000800002080B485B000AF78607B6803F055
:1009B4000703FB600C4BDB68BB60BA684FF6FF03B0
:1009C4001340BB60FB681A02BB68134343F0BF6368
:1009D40043F40033BB60044ABB68D36000BF1437E0
:1009E400BD465DF8047B704700ED00E080B400AFC5
:1009F400044BDB681B0A03F007031846BD465DF889
:100A0400047B704700ED00E080B483B000AF034680
:100A1400FB7197F90730002B0BDBFB7903F01F0206
:100A2400074997F907305B09012000FA02F241F8FF
:100A3400232000BF0C37BD465DF8047B704700BF20
:100A440000E100E080B483B000AF03463960FB717D
:100A540097F90730002B0ADB3B68DAB20C4997F9A7
:100A640007301201D2B20B4483F800230AE03B683A
:100A7400DAB20849FB7903F00F03043B1201D2B246
:100A84000B441A7600BF0C37BD465DF8047B7047F3
:100A940000E100E000ED00E080B489B000AFF86050
:100AA400B9607A60FB6803F00703FB61FB69C3F17B
:100AB4000703042B28BF0423BB61FB690433062B03
:100AC40002D9FB69033B00E000237B614FF0FF3256
:100AD400BB6902FA03F3DA43BB681A407B699A40A4
:100AE4004FF0FF317B6901FA03F3D9437B680B4074
:100AF400134318462437BD465DF8047B7047000055
:100B040080B582B000AF78607B68013BB3F1807F31
:100B140001D301230FE00A4A7B68013B53600F2194
:100B24004FF0FF30FFF78EFF054B00229A60044B15
:100B340007221A60002318460837BD4680BD00BF4F
:100B440010E000E080B582B000AF78607868FFF70D
:100B540029FF00BF0837BD4680BD80B586B000AF11
:100B64000346B9607A60FB7300237B61FFF73EFFA5
:100B740078617A68B9687869FFF78EFF024697F959
:100B84000F3011461846FFF75DFF00BF1837BD460A
:100B940080BD80B582B000AF0346FB7197F9073082
:100BA4001846FFF731FF00BF0837BD4680BD80B54A
:100BB40082B000AF78607868FFF7A2FF034618465A
:100BC4000837BD4680BD000080B489B000AF7860AE
:100BD400396000237B6100233B610023BB61002358
:100BE400FB6165E10122FB6902FA03F37B613B6867
:100BF4001B687A6913403B613A697B699A4240F009
:100C040054813B685B6803F00303012B05D03B6808
:100C14005B6803F00303022B30D17B689B68BB61E4
:100C2400FB695B00032202FA03F3DB43BA69134056
:100C3400BB613B68DA68FB695B0002FA03F3BA69DB
:100C44001343BB617B68BA699A607B685B68BB616C
:100C54000122FB6902FA03F3DB43BA691340BB6167
:100C64003B685B681B0903F00102FB6902FA03F3AA
:100C7400BA691343BB617B68BA695A603B685B68B5
:100C840003F00303032B17D07B68DB68BB61FB69AC
:100C94005B00032202FA03F3DB43BA691340BB612E
:100CA4003B689A68FB695B0002FA03F3BA69134371
:100CB400BB617B68BA69DA603B685B6803F0030375
:100CC400022B23D1FB69DA087B68083253F82230FF
:100CD400BB61FB6903F007039B000F2202FA03F3D5
:100CE400DB43BA691340BB613B681A69FB6903F0D3
:100CF40007039B0002FA03F3BA691343BB61FB6960
:100D0400DA087B680832B96943F822107B681B68EB
:100D1400BB61FB695B00032202FA03F3DB43BA699C
:100D24001340BB613B685B6803F00302FB695B0033
:100D340002FA03F3BA691343BB617B68BA691A60A8
:100D44003B685B6803F44033002B00F0AE80002363
:100D5400FB605D4B5B6C5C4A43F4804353645A4BC9
:100D64005B6C03F48043FB60FB68584AFB699B0897
:100D7400023352F82330BB61FB6903F003039B0089
:100D84000F2202FA03F3DB43BA691340BB617B68A9
:100D94004F4A934225D07B684E4A93421FD07B68CA
:100DA4004D4A934219D07B684C4A934213D07B68D6
:100DB4004B4A93420DD07B684A4A934207D07B68E2
:100DC400494A934201D106230CE007230AE0052394
:100DD40008E0042306E0032304E0022302E00123E5
:100DE40000E00023FA6902F0030292009340BA691A
:100DF4001343BB613549FB699B080233BA6941F867
:100E040023203A4B1B68BB613B69DB43BA6913403F
:100E1400BB613B685B6803F48033002B03D0BA6981
:100E24003B691343BB61314ABB6913602F4B5B6859
:100E3400BB613B69DB43BA691340BB613B685B68D8
:100E440003F40033002B03D0BA693B691343BB613D
:100E5400264ABB695360254B9B68BB613B69DB43F6
:100E6400BA691340BB613B685B6803F48013002BD1
:100E740003D0BA693B691343BB611C4ABB699360E5
:100E84001A4BDB68BB613B69DB43BA691340BB6146
:100E94003B685B6803F40013002B03D0BA693B6919
:100EA4001343BB61114ABB69D360FB690133FB6126
:100EB400FB690F2B7FF696AE00BF00BF2437BD46FB
:100EC4005DF8047B704700BF0038024000380140E1
:100ED400000002400004024000080240000C0240EE
:100EE400001002400014024000180240003C01407F
:100EF40080B483B000AF78600B467B8013467B7070
:100F04007B78002B03D07A887B689A6103E07B8826
:100F14001A047B689A6100BF0C37BD465DF8047BF8
:100F2400704780B485B000AF78600B467B807B68E7
:100F34005B69FB607A88FB6813401A04FB68D94339
:100F44007B880B401A437B689A6100BF1437BD4607
:100F54005DF8047B7047000080B582B000AF0346A3
:100F6400FB80084B5A69FB881340002B06D0054AC6
:100F7400FB885361FB881846FFF7E8FA00BF08377F
:100F8400BD4680BD003C014080B584B000AF7860B0
:100F940039607B68002B01D10123CCE0684B1B68CE
:100FA40003F00F033A689A420CD9654B3A68D2B2FF
:100FB4001A70634B1B6803F00F033A689A4201D01E
:100FC4000123B8E07B681B6803F00203002B20D0E8
:100FD4007B681B6803F00403002B05D0594B9B6806
:100FE400584A43F4E05393607B681B6803F008039A
:100FF400002B05D0534B9B68524A43F460439360E3
:10100400504B9B6823F0F0027B689B684D49134367
:101014008B607B681B6803F00103002B44D07B6862
:101024005B68012B07D1474B1B6803F40033002B8B
:1010340019D101237FE07B685B68022B03D07B68B6
:101044005B68032B07D13F4B1B6803F00073002B35
:1010540009D101236FE03B4B1B6803F00203002B13
:1010640001D1012367E0374B9B6823F003027B68BF
:101074005B68344913438B60FFF764FCF8600AE053
:10108400FFF760FC0246FB68D31A41F288329342B0
:1010940001D903234FE02B4B9B6803F00C027B68C0
:1010A4005B689B009A42EBD1254B1B6803F00F034E
:1010B4003A689A420CD2224B3A68D2B21A70204B48
:1010C4001B6803F00F033A689A4201D0012332E00F
:1010D4007B681B6803F00403002B08D0194B9B6842
:1010E40023F4E0527B68DB68164913438B607B680A
:1010F4001B6803F00803002B09D0124B9B6823F4F0
:1011040060427B681B69DB000E4913438B6000F06F
:1011140021F802460B4B9B681B0903F00F030A4995
:10112400CB5C22FA03F3094A1360094B1B68184687
:10113400FFF7C4FB002318461037BD4680BD00BF2F
:10114400003C024000380240681A000800000020F9
:10115400040000202DE9B04F88B000AF00237B616C
:101164000023FB6100233B610023FB600023BB6180
:10117400CE4B9B6803F00C030C2B00F28D8101A273
:1011840052F823F0BD1100089D1400089D140008B6
:101194009D140008C31100089D1400089D14000844
:1011A4009D140008C91100089D1400089D1400082E
:1011B4009D1400083D130008BD4BBB616FE1BD4B9E
:1011C400BB616CE1B94B5B6803F03F037B61B74BD8
:1011D4005B6803F48003002B53D0B44B5B689B091A
:1011E4001A464FF0000340F2FF104FF0000102EAEC
:1011F40000043C600B407B60D7E90045204629464B
:101204004FF000024FF000034B0143EAD063420168
:10121400104619462346C01A2B4661EB03014FF0D2
:1012240000024FF000038B0143EA90638201121A1B
:1012340063EB01034FF000004FF00001D90041EAD5
:101244005271D00002460B4621465218294643EB00
:1012540001010B464FF000004FF00001590241EA32
:10126400D251500202460B46104619467B691A4673
:101274004FF00003FEF7C4FF02460B461346FB6122
:101284004CE08A4B5B689B091A464FF0000340F21E
:10129400FF104FF0000102EA000A03EA010B504676
:1012A40059464FF000024FF000034B0143EAD0636C
:1012B400420110461946B0EB0A0061EB0B014FF0F6
:1012C40000024FF000038B0143EA90638201121A7B
:1012D40063EB01034FF000004FF00001D90041EA35
:1012E4005271D00002460B4612EB0A0243EB0B0389
:1012F4004FF000004FF00001990241EA9251900230
:1013040002460B46104619467B691A464FF0000305
:10131400FEF776FF02460B461346FB61634B5B68A0
:101324001B0C03F0030301335B003B61FA693B6967
:10133400B2FBF3F3BB61B2E05C4B5B6803F03F03C9
:101344007B615A4B5B6803F48003002B4DD0574BF1
:101354005B689B091A464FF0000340F2FF104FF000
:10136400000102EA000803EA0109404649464FF039
:1013740000024FF000034B0143EAD06342011046E0
:101384001946B0EB080061EB09014FF000024FF081
:1013940000038B0143EA90638201121A63EB010399
:1013A4004FF000004FF00001D90041EA5271D00023
:1013B40002460B4612EB080243EB09034FF0000010
:1013C4004FF00001590241EAD251500202460B4645
:1013D400104619467B691A464FF00003FEF710FFCA
:1013E40002460B461346FB614AE0304B5B689B099F
:1013F4001A464FF0000340F2FF104FF0000102EADA
:10140400000403EA0105204629464FF000024FF08C
:1014140000034B0143EAD063420110461946001B06
:1014240061EB05014FF000024FF000038B0143EA2A
:1014340090638201121A63EB01034FF000004FF036
:101444000001D90041EA5271D00002460B4612193C
:1014540045EB03034FF000004FF00001990241EA0D
:101464009251900202460B46104619467B691A4671
:101474004FF00003FEF7C4FE02460B461346FB6121
:101484000A4B5B681B0F03F00703FB60FA69FB68F8
:10149400B2FBF3F3BB6102E0054BBB6100BFBB6968
:1014A40018462037BD46BDE8B08F00BF0038024063
:1014B4000024F40000127A0080B586B000AF786092
:1014C4007B68002B01D101238DE27B681B6803F04C
:1014D4000103002B00F08380944B9B6803F00C0302
:1014E400042B19D0914B9B6803F00C03082B06D1F5
:1014F4008E4B5B6803F48003B3F5800F0CD08B4BE9
:101504009B6803F00C030C2B12D1884B5B6803F42B
:101514008003B3F5800F0BD1844B1B6803F40033B5
:10152400002B5BD07B685B68002B57D101235AE208
:101534007B685B68B3F5803F06D17C4B1B687B4AB4
:1015440043F4803313601DE07B685B68B3F5A02F20
:101554000CD1764B1B68754A43F480231360734B9C
:101564001B68724A43F4803313600BE06F4B1B68B3
:101574006E4A23F4803313606C4B1B686B4A23F46C
:10158400802313607B685B68002B13D0FFF7DAF9C4
:10159400386108E0FFF7D6F902463B69D31A642B99
:1015A40001D903231FE2614B1B6803F40033002BB2
:1015B400F0D014E0FFF7C6F9386108E0FFF7C2F98C
:1015C40002463B69D31A642B01D903230BE2574B20
:1015D4001B6803F40033002BF0D100E000BF7B68EC
:1015E4001B6803F00203002B6FD0504B9B6803F081
:1015F4000C03002B17D04D4B9B6803F00C03082BF6
:1016040005D14A4B5B6803F48003002B0BD0474B96
:101614009B6803F00C030C2B1CD1444B5B6803F454
:101624008003002B16D1414B1B6803F00203002BEF
:1016340005D07B68DB68012B01D00123D3E13B4B50
:101644001B6823F0F8027B681B69DB0037491343EE
:101654000B603AE07B68DB68002B20D0344B01221E
:101664001A60FFF76FF9386108E0FFF76BF902467B
:101674003B69D31A022B01D90323B4E12B4B1B681A
:1016840003F00203002BF0D0284B1B6823F0F80270
:101694007B681B69DB00254913430B6015E0244B71
:1016A40000221A60FFF74EF9386108E0FFF74AF9A3
:1016B40002463B69D31A022B01D9032393E11B4B46
:1016C4001B6803F00203002BF0D17B681B6803F056
:1016D4000803002B36D07B685B69002B16D0154BB2
:1016E40001221A60FFF72EF9386108E0FFF72AF9A2
:1016F40002463B69D31A022B01D9032373E10B4B36
:101704005B6F03F00203002BF0D01BE0094B0022B7
:101714001A60FFF717F938610EE0FFF713F9024674
:101724003B69D31A022B07D903235CE1003802403A
:1017340000004742800E47428A4B5B6F03F002036E
:10174400002BEAD17B681B6803F00403002B00F034
:1017540097800023FB75834B1B6C03F08053002B95
:101764000FD10023BB607F4B1B6C7E4A43F0805338
:1017740013647C4B1B6C03F08053BB60BB68012378
:10178400FB75794B1B6803F48073002B18D1764BDF
:101794001B68754A43F480731360FFF7D3F838610C
:1017A40008E0FFF7CFF802463B69D31A022B01D9B0
:1017B400032318E16C4B1B6803F48073002BF0D0F7
:1017C4007B689B68012B06D1664B1B6F654A43F00F
:1017D400010313671CE07B689B68052B0CD1614BEC
:1017E4001B6F604A43F0040313675E4B1B6F5D4A33
:1017F40043F0010313670BE05A4B1B6F594A23F064
:1018040001031367574B1B6F564A23F004031367F6
:101814007B689B68002B15D0FFF794F838610AE0C9
:10182400FFF790F802463B69D31A41F2883293429B
:1018340001D90323D7E04B4B1B6F03F00203002BAA
:10184400EED014E0FFF77EF838610AE0FFF77AF88B
:1018540002463B69D31A41F28832934201D90323E9
:10186400C1E0404B1B6F03F00203002BEED1FB7D64
:10187400012B05D13B4B1B6C3A4A23F08053136474
:101884007B689B69002B00F0AD80364B9B6803F0AE
:101894000C03082B60D07B689B69022B45D1334B2A
:1018A40000221A60FFF74EF8386108E0FFF74AF8A3
:1018B40002463B69D31A022B01D9032393E0294B37
:1018C4001B6803F00073002BF0D17B68DA697B6836
:1018D4001B6A1A437B685B6A9B011A437B689B6A99
:1018E4005B08013B1B041A437B68DB6A1B061A4333
:1018F4007B681B6B1B071B4913434B601B4B01226B
:101904001A60FFF71FF8386108E0FFF71BF802467A
:101914003B69D31A022B01D9032364E0114B1B68E2
:1019240003F00073002BF0D05CE0104B00221A602F
:10193400FFF708F8386108E0FFF704F802463B694E
:10194400D31A022B01D903234DE0064B1B6803F085
:101954000073002BF0D145E07B689B69012B07D114
:10196400012340E00038024000700040600047421C
:101974001F4B5B68FB607B689B69012B30D0FB6865
:1019840003F480027B68DB699A4229D1FB6803F087
:101994003F027B681B6A9A4222D1FA6847F6C073F9
:1019A40013407A68526A9201934219D1FB6803F496
:1019B40040327B689B6A5B08013B1B049A420FD14F
:1019C400FB6803F070627B68DB6A1B069A4207D1EE
:1019D400FB6803F0E0427B681B6B1B079A4201D053
:1019E400012300E0002318461837BD4680BD00BF20
:1019F4000038024070B50D4D0D4C641BA410002638
:101A0400A64209D10B4D0C4C00F020F8641BA41025
:101A14000026A64205D170BD55F8043B984701360F
:101A2400EEE755F8043B98470136F2E7801A0008C0
:101A3400801A0008801A0008841A00080244034629
:101A4400934200D1704703F8011BF9E7F8B500BFD2
:101A5400F8BC08BC9E467047F8B500BFF8BC08BC8B
:041A64009E467047E3
:101A68000000000000000000010203040607080946
:081A7800BCE7FF7F0100000044
:041A8000E901000870
:041A8400C501000890
:0C1A88000024F400100000000100000029
:04000005080004FDEE
:00000001FF
