:020000040800F2
:1000000000000220C91800085118000857180008FD
:100010005D18000863180008691800080000000057
:100020000000000000000000000000006F18000841
:100030007D180008000000008B18000899180008BF
:1000400019190008191900081919000819190008C8
:1000500019190008191900081919000819190008B8
:1000600019190008191900081919000819190008A8
:100070001919000819190008191900081919000898
:100080001919000819190008191900081919000888
:100090001919000819190008191900081919000878
:1000A0001919000819190008191900081919000868
:1000B0001919000819190008191900081919000858
:1000C0001919000819190008191900081919000848
:1000D0001919000819190008191900081919000838
:1000E0001919000819190008191900081919000828
:1000F0001919000819190008191900081919000818
:100100001919000819190008191900081919000807
:1001100019190008191900081919000819190008F7
:1001200019190008191900081919000819190008E7
:10013000191900080000000000000000191900084B
:1001400019190008191900081919000819190008C7
:1001500019190008191900081919000819190008B7
:1001600019190008191900081919000819190008A7
:1001700019190008191900081919000800000000D1
:100180000000000019190008000000000000000035
:1001900019190008000000000000000019190008EB
:1001A0000000000000000000000000001919000815
:1001B0001919000819190008191900081919000857
:0401C0001919000801
:1001C40010B5054C237833B9044B13B10448AFF38D
:1001D40000800123237010BD0C00002000000000EB
:1001E4007419000808B5034B1BB103490348AFF366
:1001F400008008BD000000001000002074190008F1
:1002040053B94AB9002908BF00281CBF4FF0FF3179
:100214004FF0FF3000F06EB9ADF1080C6DE904CE7B
:1002240000F006F8DDF804E0DDE9022304B07047CD
:100234002DE9F047089D04468C46002B40F083804E
:100244008A42174647D9B2FA82F242B1C2F120007B
:1002540024FA00F09140974040EA010C94404FEAA0
:100264001748230CBCFBF8F61FFA87FE08FB16C1DF
:1002740043EA014306FB0EF1994209D9FB1806F142
:10028400FF3080F01981994240F21681023E3B44CE
:100294005B1AA4B2B3FBF8F008FB103344EA03443E
:1002A40000FB0EFEA64509D93C1900F1FF3380F08E
:1002B4000581A64540F2028102383C4440EA0640EA
:1002C400A4EB0E0400261DB1D4400023C5E900436D
:1002D4003146BDE8F08702B9FFDEB2FA82F2002AA5
:1002E40050D1CB1B4FEA174E1FFA87F80126B3FBF8
:1002F400FEFC210C0EFB1C3341EA034108FB0CF30A
:100304008B4207D979180CF1FF3002D28B4200F2EC
:10031400E9808446C91AA3B2B1FBFEF00EFB1011AA
:1003240043EA014408FB00F8A04507D93C1900F151
:10033400FF3302D2A04500F2D9801846A4EB08048A
:1003440040EA0C40BFE78B4209D9002D00F0B18090
:100354000026C5E9000130463146BDE8F087B3FA0E
:1003640083F6002E4AD18B4202D3824200F2B88037
:10037400841A61EB030101208C46002DA8D0C5E945
:10038400004CA5E7C2F1200320FA03F6974001FAD6
:1003940002F04FEA174ED9403043030CB1FBFEF68E
:1003A4001FFA87F80EFB161143EA014306FB08F116
:1003B400994204FA02F409D9FB1806F1FF3C80F0D3
:1003C4008D80994240F28A80023E3B445B1A81B29E
:1003D400B3FBFEF00EFB103341EA034100FB08F3CC
:1003E4008B4207D9791800F1FF3C73D28B4271D943
:1003F40002383944CB1A40EA064678E7C6F1200CA5
:1004040003FA06F422FA0CF31C4320FA0CF701FA5F
:1004140006F34FEA144E21FA0CF11F433B0CB1FBD7
:10042400FEF91FFA84F80EFB191143EA014109FB96
:1004340008FA8A4502FA06F200FA06F308D96118A6
:1004440009F1FF3048D28A4546D9A9F1020921446D
:10045400A1EB0A01BFB2B1FBFEF00EFB101147EA9B
:10046400014700FB08F8B84507D9E71900F1FF3147
:100474002ED2B8452CD90238274440EA0940A7EBCC
:100484000807A0FB02894F45C64649461AD317D030
:100494005DB1B3EB0E0267EB010707FA0CFCF24007
:1004A4004CEA0202F740C5E9002700263146BDE8C0
:1004B400F0872E4628460BE70646E9E61846FDE691
:1004C4004345E5D2B8EB020E69EB04010138DFE7DE
:1004D4000846D2E760468DE78146B9E7664675E788
:1004E40030464AE7ACF1020C394413E702383C4485
:1004F40024E700BF704700BF80B500AF0E4B1B68F8
:100504000D4A43F4007313600B4B1B680A4A43F40F
:1005140080631360084B1B68074A43F480731360BD
:10052400032000F031F90F2000F008F801F066F91B
:100534000023184680BD00BF003C024080B582B055
:1005440000AF7860124B1A68124B1B7819464FF4AF
:100554007A73B3FBF1F3B2FBF3F3184600F03BF903
:100564000346002B01D001230EE07B680F2B0AD831
:10057400002279684FF0FF3000F011F9064A7B68D9
:100584001360002300E0012318460837BD4680BDF0
:1005940008000020040000200000002080B400AF08
:1005A400064B1B781A46064B1B681344044A136017
:1005B40000BFBD465DF8047B704700BF0400002007
:1005C4002C00002080B400AF034B1B681846BD46C6
:1005D4005DF8047B704700BF2C00002080B584B018
:1005E40000AF7860FFF7EEFFB8607B68FB60FB68E4
:1005F400B3F1FF3F05D00A4B1B781A46FB6813443E
:10060400FB6000BFFFF7DEFF0246BB68D31AFA683F
:100614009A42F7D800BF00BF1037BD4680BD00BF67
:100624000400002080B485B000AF78607B6803F0DC
:100634000703FB600C4BDB68BB60BA684FF6FF0333
:100644001340BB60FB681A02BB68134343F0BF63EB
:1006540043F40033BB60044ABB68D36000BF143763
:10066400BD465DF8047B704700ED00E080B400AF48
:10067400044BDB681B0A03F007031846BD465DF80C
:10068400047B704700ED00E080B483B000AF034604
:100694003960FB7197F90730002B0ADB3B68DAB24B
:1006A4000C4997F907301201D2B20B4483F80023A6
:1006B4000AE03B68DAB20849FB7903F00F03043B14
:1006C4001201D2B20B441A7600BF0C37BD465DF856
:1006D400047B704700E100E000ED00E080B489B0E5
:1006E40000AFF860B9607A60FB6803F00703FB6150
:1006F400FB69C3F10703042B28BF0423BB61FB6917
:100704000433062B02D9FB69033B00E000237B6121
:100714004FF0FF32BB6902FA03F3DA43BB681A40B5
:100724007B699A404FF0FF317B6901FA03F3D943A7
:100734007B680B40134318462437BD465DF8047BA1
:100744007047000080B582B000AF78607B68013BE1
:10075400B3F1807F01D301230FE00A4A7B68013B98
:1007640053600F214FF0FF30FFF78EFF054B00223F
:100774009A60044B07221A60002318460837BD46C6
:1007840080BD00BF10E000E080B582B000AF7860AB
:100794007868FFF747FF00BF0837BD4680BD80B5C6
:1007A40086B000AF0346B9607A60FB7300237B61B7
:1007B400FFF75CFF78617A68B9687869FFF78EFFA4
:1007C400024697F90F3011461846FFF75DFF00BF48
:1007D4001837BD4680BD80B582B000AF78607868B8
:1007E400FFF7B0FF034618460837BD4680BD00003A
:1007F40080B489B000AF7860396000237B61002346
:100804003B610023BB610023FB6165E10122FB69BD
:1008140002FA03F37B613B681B687A6913403B610E
:100824003A697B699A4240F054813B685B6803F003
:100834000303012B05D03B685B6803F00303022B21
:1008440030D17B689B68BB61FB695B00032202FAC1
:1008540003F3DB43BA691340BB613B68DA68FB69A5
:100864005B0002FA03F3BA691343BB617B68BA699C
:100874009A607B685B68BB610122FB6902FA03F33F
:10088400DB43BA691340BB613B685B681B0903F037
:100894000102FB6902FA03F3BA691343BB617B6883
:1008A400BA695A603B685B6803F00303032B17D0F3
:1008B4007B68DB68BB61FB695B00032202FA03F31C
:1008C400DB43BA691340BB613B689A68FB695B0010
:1008D40002FA03F3BA691343BB617B68BA69DA604D
:1008E4003B685B6803F00303022B23D1FB69DA083E
:1008F4007B68083253F82230BB61FB6903F00703BD
:100904009B000F2202FA03F3DB43BA691340BB6175
:100914003B681A69FB6903F007039B0002FA03F3BF
:10092400BA691343BB61FB69DA087B680832B969A9
:1009340043F822107B681B68BB61FB695B000322E0
:1009440002FA03F3DB43BA691340BB613B685B689B
:1009540003F00302FB695B0002FA03F3BA69134371
:10096400BB617B68BA691A603B685B6803F4403317
:10097400002B00F0AE800023FB605D4B5B6C5C4A97
:1009840043F4804353645A4B5B6C03F48043FB6031
:10099400FB68584AFB699B08023352F82330BB6159
:1009A400FB6903F003039B000F2202FA03F3DB430A
:1009B400BA691340BB617B684F4A934225D07B6878
:1009C4004E4A93421FD07B684D4A934219D07B68AC
:1009D4004C4A934213D07B684B4A93420DD07B68B8
:1009E4004A4A934207D07B68494A934201D106237D
:1009F4000CE007230AE0052308E0042306E00323B0
:100A040004E0022302E0012300E00023FA6902F07B
:100A1400030292009340BA691343BB613549FB69F1
:100A24009B080233BA6941F823203A4B1B68BB6127
:100A34003B69DB43BA691340BB613B685B6803F401
:100A44008033002B03D0BA693B691343BB61314A3D
:100A5400BB6913602F4B5B68BB613B69DB43BA69BD
:100A64001340BB613B685B6803F40033002B03D085
:100A7400BA693B691343BB61264ABB695360254B82
:100A84009B68BB613B69DB43BA691340BB613B684C
:100A94005B6803F48013002B03D0BA693B691343EA
:100AA400BB611C4ABB6993601A4BDB68BB613B6941
:100AB400DB43BA691340BB613B685B6803F4001312
:100AC400002B03D0BA693B691343BB61114ABB696C
:100AD400D360FB690133FB61FB690F2B7FF696AE94
:100AE40000BF00BF2437BD465DF8047B704700BFDC
:100AF4000038024000380140000002400004024077
:100B040000080240000C02400010024000140240A1
:100B140000180240003C014080B485B000AF78600A
:100B24000B467B807B681A697B881340002B02D0BC
:100B34000123FB7301E00023FB73FB7B184614378E
:100B4400BD465DF8047B704780B483B000AF786025
:100B54000B467B8013467B707B78002B03D07A880E
:100B64007B689A6103E07B881A047B689A6100BF02
:100B74000C37BD465DF8047B7047000080B584B037
:100B840000AF786039607B68002B01D10123CCE091
:100B9400684B1B6803F00F033A689A420CD9654B03
:100BA4003A68D2B21A70634B1B6803F00F033A68B9
:100BB4009A4201D00123B8E07B681B6803F002036A
:100BC400002B20D07B681B6803F00403002B05D0A6
:100BD400594B9B68584A43F4E05393607B681B6805
:100BE40003F00803002B05D0534B9B68524A43F48F
:100BF40060439360504B9B6823F0F0027B689B68D2
:100C04004D4913438B607B681B6803F00103002B81
:100C140044D07B685B68012B07D1474B1B6803F406
:100C24000033002B19D101237FE07B685B68022B22
:100C340003D07B685B68032B07D13F4B1B6803F031
:100C44000073002B09D101236FE03B4B1B6803F0B9
:100C54000203002B01D1012367E0374B9B6823F08B
:100C640003027B685B68344913438B60FFF7AAFC7B
:100C7400F8600AE0FFF7A6FC0246FB68D31A41F2CB
:100C84008832934201D903234FE02B4B9B6803F036
:100C94000C027B685B689B009A42EBD1254B1B6876
:100CA40003F00F033A689A420CD2224B3A68D2B24C
:100CB4001A70204B1B6803F00F033A689A4201D064
:100CC400012332E07B681B6803F00403002B08D087
:100CD400194B9B6823F4E0527B68DB681649134385
:100CE4008B607B681B6803F00803002B09D0124B50
:100CF4009B6823F460427B681B69DB000E49134345
:100D04008B6000F021F802460B4B9B681B0903F033
:100D14000F030A49CB5C22FA03F3094A1360094B17
:100D24001B681846FFF70AFC002318461037BD4617
:100D340080BD00BF003C0240003802408C1900080E
:100D440008000020000000202DE9B04F88B000AF5B
:100D540000237B610023FB6100233B610023FB60D4
:100D64000023BB61CE4B9B6803F00C030C2B00F2F9
:100D74008D8101A252F823F0B10D000891100008F2
:100D84009110000891100008B70D00089110000898
:100D94009110000891100008BD0D00089110000882
:100DA4009110000891100008310F0008BD4BBB6181
:100DB4006FE1BD4BBB616CE1B94B5B6803F03F0372
:100DC4007B61B74B5B6803F48003002B53D0B44BB7
:100DD4005B689B091A464FF0000340F2FF104FF086
:100DE400000102EA00043C600B407B60D7E9004547
:100DF400204629464FF000024FF000034B0143EA1E
:100E0400D0634201104619462346C01A2B4661EBB3
:100E140003014FF000024FF000038B0143EA90639B
:100E24008201121A63EB01034FF000004FF000013E
:100E3400D90041EA5271D00002460B4621465218AD
:100E4400294643EB01010B464FF000004FF000012F
:100E5400590241EAD251500202460B461046194645
:100E64007B691A464FF00003FFF7CAF902460B46A6
:100E74001346FB614CE08A4B5B689B091A464FF0B2
:100E8400000340F2FF104FF0000102EA000A03EAF7
:100E9400010B504659464FF000024FF000034B013E
:100EA40043EAD063420110461946B0EB0A0061EBF5
:100EB4000B014FF000024FF000038B0143EA9063F3
:100EC4008201121A63EB01034FF000004FF000019E
:100ED400D90041EA5271D00002460B4612EB0A02D5
:100EE40043EB0B034FF000004FF00001990241EA7D
:100EF4009251900202460B46104619467B691A46E7
:100F04004FF00003FFF77CF902460B461346FB61E2
:100F1400634B5B681B0C03F0030301335B003B6111
:100F2400FA693B69B2FBF3F3BB61B2E05C4B5B680B
:100F340003F03F037B615A4B5B6803F48003002B8F
:100F44004DD0574B5B689B091A464FF0000340F2A3
:100F5400FF104FF0000102EA000803EA01094046CD
:100F640049464FF000024FF000034B0143EAD063BF
:100F7400420110461946B0EB080061EB09014FF03D
:100F840000024FF000038B0143EA90638201121ABE
:100F940063EB01034FF000004FF00001D90041EA78
:100FA4005271D00002460B4612EB080243EB0903D0
:100FB4004FF000004FF00001590241EAD2515002B3
:100FC40002460B46104619467B691A464FF0000349
:100FD400FFF716F902460B461346FB614AE0304B15
:100FE4005B689B091A464FF0000340F2FF104FF074
:100FF400000102EA000403EA0105204629464FF0F5
:1010040000024FF000034B0143EAD0634201104653
:101014001946001B61EB05014FF000024FF000037D
:101024008B0143EA90638201121A63EB01034FF0D0
:1010340000004FF00001D90041EA5271D00002468D
:101044000B46121945EB03034FF000004FF000016B
:10105400990241EA9251900202460B461046194603
:101064007B691A464FF00003FFF7CAF802460B46A5
:101074001346FB610A4B5B681B0F03F00703FB601D
:10108400FA69FB68B2FBF3F3BB6102E0054BBB6199
:1010940000BFBB6918462037BD46BDE8B08F00BF0E
:1010A400003802400024F40000127A0080B586B0B3
:1010B40000AF78607B68002B01D101238DE27B684F
:1010C4001B6803F00103002B00F08380944B9B68A2
:1010D40003F00C03042B19D0914B9B6803F00C0311
:1010E400082B06D18E4B5B6803F48003B3F5800FA5
:1010F4000CD08B4B9B6803F00C030C2B12D1884B48
:101104005B6803F48003B3F5800F0BD1844B1B6839
:1011140003F40033002B5BD07B685B68002B57D152
:1011240001235AE27B685B68B3F5803F06D17C4BB0
:101134001B687B4A43F4803313601DE07B685B6863
:10114400B3F5A02F0CD1764B1B68754A43F480236A
:101154001360734B1B68724A43F4803313600BE0D3
:101164006F4B1B686E4A23F4803313606C4B1B680F
:101174006B4A23F4802313607B685B68002B13D0D5
:10118400FFF720FA386108E0FFF71CFA02463B69D2
:10119400D31A642B01D903231FE2614B1B6803F4A8
:1011A4000033002BF0D014E0FFF70CFA386108E0AC
:1011B400FFF708FA02463B69D31A642B01D90323CB
:1011C4000BE2574B1B6803F40033002BF0D100E013
:1011D40000BF7B681B6803F00203002B6FD0504BE9
:1011E4009B6803F00C03002B17D04D4B9B6803F056
:1011F4000C03082B05D14A4B5B6803F48003002BD6
:101204000BD0474B9B6803F00C030C2B1CD1444BB5
:101214005B6803F48003002B16D1414B1B6803F079
:101224000203002B05D07B68DB68012B01D001236E
:10123400D3E13B4B1B6823F0F8027B681B69DB009E
:10124400374913430B603AE07B68DB68002B20D0FE
:10125400344B01221A60FFF7B5F9386108E0FFF753
:10126400B1F902463B69D31A022B01D90323B4E135
:101274002B4B1B6803F00203002BF0D0284B1B6898
:1012840023F0F8027B681B69DB00254913430B60DC
:1012940015E0244B00221A60FFF794F9386108E046
:1012A400FFF790F902463B69D31A022B01D90323B5
:1012B40093E11B4B1B6803F00203002BF0D17B6806
:1012C4001B6803F00803002B36D07B685B69002B96
:1012D40016D0154B01221A60FFF774F9386108E043
:1012E400FFF770F902463B69D31A022B01D9032395
:1012F40073E10B4B5B6F03F00203002BF0D01BE098
:10130400094B00221A60FFF75DF938610EE0FFF720
:1013140059F902463B69D31A022B07D903235CE12E
:101324000038024000004742800E47428A4B5B6F00
:1013340003F00203002BEAD17B681B6803F004036B
:10134400002B00F097800023FB75834B1B6C03F08C
:101354008053002B0FD10023BB607F4B1B6C7E4A54
:1013640043F0805313647C4B1B6C03F08053BB60CD
:10137400BB680123FB75794B1B6803F48073002B56
:1013840018D1764B1B68754A43F480731360FFF7DA
:1013940019F9386108E0FFF715F902463B69D31AD9
:1013A400022B01D9032318E16C4B1B6803F48073EF
:1013B400002BF0D07B689B68012B06D1664B1B6F1A
:1013C400654A43F0010313671CE07B689B68052BA7
:1013D4000CD1614B1B6F604A43F0040313675E4BEF
:1013E4001B6F5D4A43F0010313670BE05A4B1B6FFD
:1013F400594A23F001031367574B1B6F564A23F0D6
:10140400040313677B689B68002B15D0FFF7DAF899
:1014140038610AE0FFF7D6F802463B69D31A41F275
:101424008832934201D90323D7E04B4B1B6F03F05F
:101434000203002BEED014E0FFF7C4F838610AE091
:10144400FFF7C0F802463B69D31A41F2883293424F
:1014540001D90323C1E0404B1B6F03F00203002BAF
:10146400EED1FB7D012B05D13B4B1B6C3A4A23F09B
:10147400805313647B689B69002B00F0AD80364B6E
:101484009B6803F00C03082B60D07B689B69022BDC
:1014940045D1334B00221A60FFF794F8386108E015
:1014A400FFF790F802463B69D31A022B01D90323B4
:1014B40093E0294B1B6803F00073002BF0D17B6889
:1014C400DA697B681B6A1A437B685B6A9B011A436F
:1014D4007B689B6A5B08013B1B041A437B68DB6ADD
:1014E4001B061A437B681B6B1B071B4913434B608A
:1014F4001B4B01221A60FFF765F8386108E0FFF71B
:1015040061F802463B69D31A022B01D9032364E034
:10151400114B1B6803F00073002BF0D05CE0104B00
:1015240000221A60FFF74EF8386108E0FFF74AF826
:1015340002463B69D31A022B01D903234DE0064B23
:101544001B6803F00073002BF0D145E07B689B69B6
:10155400012B07D1012340E0003802400070004015
:10156400600047421F4B5B68FB607B689B69012BF3
:1015740030D0FB6803F480027B68DB699A4229D18E
:10158400FB6803F03F027B681B6A9A4222D1FA6827
:1015940047F6C07313407A68526A9201934219D194
:1015A400FB6803F440327B689B6A5B08013B1B04C5
:1015B4009A420FD1FB6803F070627B68DB6A1B06FA
:1015C4009A4207D1FB6803F0E0427B681B6B1B0760
:1015D4009A4201D0012300E0002318461837BD4683
:1015E40080BD00BF0038024080B500AFFEF784FF25
:1015F40000F032F800F09CF84FF400511348FFF764
:101604008BFA0346002B0CD000BF4FF400510F4857
:10161400FFF782FA0346002BF7D14FF47A70FEF7F6
:10162400DDFF0B4B1B68002B03F00103B8BF5B42CB
:10163400012B05D1012220210648FFF785FADBE7BB
:10164400002220210348FFF77FFAD5E70008024073
:10165400280000200000024080B594B000AF07F1DC
:101664001C0334220021184600F07AF907F108031C
:1016740000221A605A609A60DA601A6100237B6063
:10168400294B1B6C284A43F080531364264B1B6C74
:1016940003F080537B607B6800233B60234B1B6813
:1016A400224A43F440431360204B1B6803F4404335
:1016B4003B603B680123FB614FF480333B620223B0
:1016C4007B634FF48003BB630423FB63A8233B6465
:1016D40002237B640223BB640223FB6407F11C0323
:1016E4001846FFF7E3FC0346002B01D000F080F816
:1016F4000F23BB600223FB6000233B614FF4A05324
:101704007B614FF48053BB6107F108030521184640
:10171400FFF734FA0346002B01D000F069F800BF4C
:101724005037BD4680BD00BF003802400070004005
:1017340080B588B000AF07F10C0300221A605A602C
:101744009A60DA601A610023BB60264B1B6B254A42
:1017540043F080031363234B1B6B03F08003BB60D4
:10176400BB6800237B601F4B1B6B1E4A43F00103C5
:1017740013631C4B1B6B03F001037B607B6800232A
:101784003B60184B1B6B174A43F002031363154B62
:101794001B6B03F002033B603B68002220211248CC
:1017A400FFF7D2F92023FB6001233B6100237B6117
:1017B4000323BB6107F10C0319460B48FFF718F824
:1017C4004FF40053FB6000233B6100237B6107F16E
:1017D4000C0319460548FFF70BF800BF2037BD4638
:1017E40080BD00BF003802400000024000040240F7
:1017F40080B400AF72B600BFFEE7000080B483B0CF
:1018040000AF00237B60104B5B6C0F4A43F48043B2
:1018140053640D4B5B6C03F480437B607B68002353
:101824003B60094B1B6C084A43F080531364064B1E
:101834001B6C03F080533B603B6800BF0C37BD4614
:101844005DF8047B704700BF0038024080B400AFED
:10185400FEE780B400AFFEE780B400AFFEE780B4DB
:1018640000AFFEE780B400AFFEE780B400AF00BF76
:10187400BD465DF8047B704780B400AF00BFBD4631
:101884005DF8047B704780B400AF00BFBD465DF8CF
:10189400047B704780B500AFFEF780FE00BF80BDBB
:1018A40080B400AF064BD3F88830054A43F4700384
:1018B400C2F8883000BFBD465DF8047B704700BFA6
:1018C40000ED00E0DFF834D00D480E490E4A002345
:1018D40002E0D458C4500433C4188C42F9D30B4AE0
:1018E4000B4C002301E013600432A242FBD3FFF748
:1018F400D7FF00F011F8FFF777FE704700000220D1
:10190400000000200C000020AC1900080C0000208E
:1019140030000020FEE7000070B50D4D0D4C641B37
:10192400A4100026A64209D10B4D0C4C00F020F85F
:10193400641BA4100026A64205D170BD55F8043BD3
:1019440098470136EEE755F8043B98470136F2E72D
:10195400A4190008A4190008A4190008A81900086B
:1019640002440346934200D1704703F8011BF9E790
:10197400F8B500BFF8BC08BC9E467047F8B500BF78
:08198400F8BC08BC9E46704748
:10198C000000000000000000010203040607080923
:08199C0098E8FF7F0100000044
:0419A400E90100084D
:0419A800C50100086D
:0C19AC0010000000010000000024F40006
:04000005080018C90E
:00000001FF
